{
  "contractName": "Dex",
  "abi": [
    {
      "anonymous": false,
      "inputs": [
        {
          "indexed": true,
          "internalType": "address",
          "name": "previousOwner",
          "type": "address"
        },
        {
          "indexed": true,
          "internalType": "address",
          "name": "newOwner",
          "type": "address"
        }
      ],
      "name": "OwnershipTransferred",
      "type": "event"
    },
    {
      "inputs": [
        {
          "internalType": "bytes32",
          "name": "_ticker",
          "type": "bytes32"
        },
        {
          "internalType": "address",
          "name": "_tokenAddress",
          "type": "address"
        }
      ],
      "name": "addToken",
      "outputs": [],
      "stateMutability": "nonpayable",
      "type": "function"
    },
    {
      "inputs": [
        {
          "internalType": "address",
          "name": "",
          "type": "address"
        },
        {
          "internalType": "bytes32",
          "name": "",
          "type": "bytes32"
        }
      ],
      "name": "balances",
      "outputs": [
        {
          "internalType": "uint256",
          "name": "",
          "type": "uint256"
        }
      ],
      "stateMutability": "view",
      "type": "function"
    },
    {
      "inputs": [
        {
          "internalType": "uint256",
          "name": "_amount",
          "type": "uint256"
        },
        {
          "internalType": "bytes32",
          "name": "_ticker",
          "type": "bytes32"
        }
      ],
      "name": "deposit",
      "outputs": [],
      "stateMutability": "nonpayable",
      "type": "function"
    },
    {
      "inputs": [],
      "name": "depositETH",
      "outputs": [],
      "stateMutability": "payable",
      "type": "function"
    },
    {
      "inputs": [],
      "name": "nextOrderID",
      "outputs": [
        {
          "internalType": "uint256",
          "name": "",
          "type": "uint256"
        }
      ],
      "stateMutability": "view",
      "type": "function"
    },
    {
      "inputs": [],
      "name": "owner",
      "outputs": [
        {
          "internalType": "address",
          "name": "",
          "type": "address"
        }
      ],
      "stateMutability": "view",
      "type": "function"
    },
    {
      "inputs": [],
      "name": "renounceOwnership",
      "outputs": [],
      "stateMutability": "nonpayable",
      "type": "function"
    },
    {
      "inputs": [
        {
          "internalType": "uint256",
          "name": "",
          "type": "uint256"
        }
      ],
      "name": "tokenList",
      "outputs": [
        {
          "internalType": "bytes32",
          "name": "",
          "type": "bytes32"
        }
      ],
      "stateMutability": "view",
      "type": "function"
    },
    {
      "inputs": [
        {
          "internalType": "bytes32",
          "name": "",
          "type": "bytes32"
        }
      ],
      "name": "tokenMapping",
      "outputs": [
        {
          "internalType": "bytes32",
          "name": "ticker",
          "type": "bytes32"
        },
        {
          "internalType": "address",
          "name": "tokenAddress",
          "type": "address"
        }
      ],
      "stateMutability": "view",
      "type": "function"
    },
    {
      "inputs": [
        {
          "internalType": "address",
          "name": "newOwner",
          "type": "address"
        }
      ],
      "name": "transferOwnership",
      "outputs": [],
      "stateMutability": "nonpayable",
      "type": "function"
    },
    {
      "inputs": [
        {
          "internalType": "uint256",
          "name": "_amount",
          "type": "uint256"
        },
        {
          "internalType": "bytes32",
          "name": "_ticker",
          "type": "bytes32"
        }
      ],
      "name": "withdraw",
      "outputs": [],
      "stateMutability": "nonpayable",
      "type": "function"
    },
    {
      "inputs": [
        {
          "internalType": "uint256",
          "name": "amount",
          "type": "uint256"
        }
      ],
      "name": "withdrawEth",
      "outputs": [],
      "stateMutability": "nonpayable",
      "type": "function"
    },
    {
      "inputs": [
        {
          "internalType": "bytes32",
          "name": "ticker",
          "type": "bytes32"
        },
        {
          "internalType": "enum Dex.Side",
          "name": "side",
          "type": "uint8"
        }
      ],
      "name": "getOrderBook",
      "outputs": [
        {
          "components": [
            {
              "internalType": "uint256",
              "name": "id",
              "type": "uint256"
            },
            {
              "internalType": "address",
              "name": "trader",
              "type": "address"
            },
            {
              "internalType": "enum Dex.Side",
              "name": "side",
              "type": "uint8"
            },
            {
              "internalType": "bytes32",
              "name": "ticker",
              "type": "bytes32"
            },
            {
              "internalType": "uint256",
              "name": "amount",
              "type": "uint256"
            },
            {
              "internalType": "uint256",
              "name": "price",
              "type": "uint256"
            }
          ],
          "internalType": "struct Dex.Order[]",
          "name": "",
          "type": "tuple[]"
        }
      ],
      "stateMutability": "view",
      "type": "function"
    },
    {
      "inputs": [
        {
          "internalType": "enum Dex.Side",
          "name": "_side",
          "type": "uint8"
        },
        {
          "internalType": "bytes32",
          "name": "_ticker",
          "type": "bytes32"
        },
        {
          "internalType": "uint256",
          "name": "_amount",
          "type": "uint256"
        },
        {
          "internalType": "uint256",
          "name": "_price",
          "type": "uint256"
        }
      ],
      "name": "createLimitOrder",
      "outputs": [],
      "stateMutability": "nonpayable",
      "type": "function"
    }
  ],
  "bytecode": "0x608060405260006004553480156200001657600080fd5b50620000376200002b6200003d60201b60201c565b6200004560201b60201c565b62000109565b600033905090565b60008060009054906101000a900473ffffffffffffffffffffffffffffffffffffffff169050816000806101000a81548173ffffffffffffffffffffffffffffffffffffffff021916908373ffffffffffffffffffffffffffffffffffffffff1602179055508173ffffffffffffffffffffffffffffffffffffffff168173ffffffffffffffffffffffffffffffffffffffff167f8be0079c531659141344cd1fd0a4f28419497f9722a3daafe3b4186f6b6457e060405160405180910390a35050565b612a2580620001196000396000f3fe6080604052600436106100dd5760003560e01c8063a8d2021a1161007f578063c9630cb011610059578063c9630cb0146102bd578063f2fde38b146102e6578063f47a0acc1461030f578063f6326fb31461033a576100dd565b8063a8d2021a1461022e578063ba58ea6814610257578063c311d04914610294576100dd565b8063715018a6116100bb578063715018a6146101865780638da5cb5b1461019d5780639776aacf146101c85780639ead7222146101f1576100dd565b80631f14df69146100e2578063667cb4ba1461011f5780636f3b62f91461015d575b600080fd5b3480156100ee57600080fd5b5061010960048036038101906101049190611ea6565b610344565b60405161011691906124dc565b60405180910390f35b34801561012b57600080fd5b5061014660048036038101906101419190611f13565b610369565b6040516101549291906123d3565b60405180910390f35b34801561016957600080fd5b50610184600480360381019061017f9190611fc0565b6103ad565b005b34801561019257600080fd5b5061019b610f31565b005b3480156101a957600080fd5b506101b2610fb9565b6040516101bf919061231b565b60405180910390f35b3480156101d457600080fd5b506101ef60048036038101906101ea9190611f40565b610fe2565b005b3480156101fd57600080fd5b5061021860048036038101906102139190612027565b61111d565b60405161022591906123b8565b60405180910390f35b34801561023a57600080fd5b5061025560048036038101906102509190612054565b611141565b005b34801561026357600080fd5b5061027e60048036038101906102799190611f80565b6114bc565b60405161028b9190612396565b60405180910390f35b3480156102a057600080fd5b506102bb60048036038101906102b69190612027565b61160b565b005b3480156102c957600080fd5b506102e460048036038101906102df9190612054565b611821565b005b3480156102f257600080fd5b5061030d60048036038101906103089190611e79565b611b0b565b005b34801561031b57600080fd5b50610324611c03565b60405161033191906124dc565b60405180910390f35b610342611c09565b005b6003602052816000526040600020602052806000526040600020600091509150505481565b60026020528060005260406000206000915090508060000154908060010160009054906101000a900473ffffffffffffffffffffffffffffffffffffffff16905082565b600060018111156103c1576103c0612778565b5b8460018111156103d4576103d3612778565b5b141561097c576103ed8183611d0290919063ffffffff16565b600360003373ffffffffffffffffffffffffffffffffffffffff1673ffffffffffffffffffffffffffffffffffffffff16815260200190815260200160002060007f4554480000000000000000000000000000000000000000000000000000000000815260200190815260200160002054101561049f576040517f08c379a00000000000000000000000000000000000000000000000000000000081526004016104969061247c565b60405180910390fd5b60006005600085815260200190815260200160002060008081526020019081526020016000209050806040518060c0016040528060045481526020013373ffffffffffffffffffffffffffffffffffffffff16815260200187600181111561050a57610509612778565b5b81526020018681526020018581526020018481525090806001815401808255809150506001900390600052602060002090600502016000909190919091506000820151816000015560208201518160010160006101000a81548173ffffffffffffffffffffffffffffffffffffffff021916908373ffffffffffffffffffffffffffffffffffffffff16021790555060408201518160010160146101000a81548160ff021916908360018111156105c4576105c3612778565b5b0217905550606082015181600201556080820151816003015560a082015181600401555050600460008154809291906105fc906126d1565b9190505550600080828054905011610615576000610627565b6001828054905061062691906125fc565b5b90505b6000811115610979578160018261064191906125fc565b81548110610652576106516127a7565b5b906000526020600020906005020160040154828281548110610677576106766127a7565b5b906000526020600020906005020160040154106109665760008282815481106106a3576106a26127a7565b5b90600052602060002090600502016040518060c0016040529081600082015481526020016001820160009054906101000a900473ffffffffffffffffffffffffffffffffffffffff1673ffffffffffffffffffffffffffffffffffffffff1673ffffffffffffffffffffffffffffffffffffffff1681526020016001820160149054906101000a900460ff16600181111561074157610740612778565b5b600181111561075357610752612778565b5b8152602001600282015481526020016003820154815260200160048201548152505090508260018361078591906125fc565b81548110610796576107956127a7565b5b90600052602060002090600502018383815481106107b7576107b66127a7565b5b9060005260206000209060050201600082015481600001556001820160009054906101000a900473ffffffffffffffffffffffffffffffffffffffff168160010160006101000a81548173ffffffffffffffffffffffffffffffffffffffff021916908373ffffffffffffffffffffffffffffffffffffffff1602179055506001820160149054906101000a900460ff168160010160146101000a81548160ff0219169083600181111561086e5761086d612778565b5b021790555060028201548160020155600382015481600301556004820154816004015590505080836001846108a391906125fc565b815481106108b4576108b36127a7565b5b90600052602060002090600502016000820151816000015560208201518160010160006101000a81548173ffffffffffffffffffffffffffffffffffffffff021916908373ffffffffffffffffffffffffffffffffffffffff16021790555060408201518160010160146101000a81548160ff0219169083600181111561093e5761093d612778565b5b0217905550606082015181600201556080820151816003015560a08201518160040155905050505b8080610971906126a7565b91505061062a565b50505b60018081111561098f5761098e612778565b5b8460018111156109a2576109a1612778565b5b1415610f2b576109bb8183611d0290919063ffffffff16565b600360003373ffffffffffffffffffffffffffffffffffffffff1673ffffffffffffffffffffffffffffffffffffffff1681526020019081526020016000206000858152602001908152602001600020541015610a4d576040517f08c379a0000000000000000000000000000000000000000000000000000000008152600401610a44906123fc565b60405180910390fd5b6000600560008581526020019081526020016000206000600181526020019081526020016000209050806040518060c0016040528060045481526020013373ffffffffffffffffffffffffffffffffffffffff168152602001876001811115610ab957610ab8612778565b5b81526020018681526020018581526020018481525090806001815401808255809150506001900390600052602060002090600502016000909190919091506000820151816000015560208201518160010160006101000a81548173ffffffffffffffffffffffffffffffffffffffff021916908373ffffffffffffffffffffffffffffffffffffffff16021790555060408201518160010160146101000a81548160ff02191690836001811115610b7357610b72612778565b5b0217905550606082015181600201556080820151816003015560a08201518160040155505060046000815480929190610bab906126d1565b9190505550600080828054905011610bc4576000610bd6565b60018280549050610bd591906125fc565b5b90505b6000811115610f285781600182610bf091906125fc565b81548110610c0157610c006127a7565b5b906000526020600020906005020160040154828281548110610c2657610c256127a7565b5b90600052602060002090600502016004015411610f15576000828281548110610c5257610c516127a7565b5b90600052602060002090600502016040518060c0016040529081600082015481526020016001820160009054906101000a900473ffffffffffffffffffffffffffffffffffffffff1673ffffffffffffffffffffffffffffffffffffffff1673ffffffffffffffffffffffffffffffffffffffff1681526020016001820160149054906101000a900460ff166001811115610cf057610cef612778565b5b6001811115610d0257610d01612778565b5b81526020016002820154815260200160038201548152602001600482015481525050905082600183610d3491906125fc565b81548110610d4557610d446127a7565b5b9060005260206000209060050201838381548110610d6657610d656127a7565b5b9060005260206000209060050201600082015481600001556001820160009054906101000a900473ffffffffffffffffffffffffffffffffffffffff168160010160006101000a81548173ffffffffffffffffffffffffffffffffffffffff021916908373ffffffffffffffffffffffffffffffffffffffff1602179055506001820160149054906101000a900460ff168160010160146101000a81548160ff02191690836001811115610e1d57610e1c612778565b5b02179055506002820154816002015560038201548160030155600482015481600401559050508083600184610e5291906125fc565b81548110610e6357610e626127a7565b5b90600052602060002090600502016000820151816000015560208201518160010160006101000a81548173ffffffffffffffffffffffffffffffffffffffff021916908373ffffffffffffffffffffffffffffffffffffffff16021790555060408201518160010160146101000a81548160ff02191690836001811115610eed57610eec612778565b5b0217905550606082015181600201556080820151816003015560a08201518160040155905050505b8080610f20906126a7565b915050610bd9565b50505b50505050565b610f39611d18565b73ffffffffffffffffffffffffffffffffffffffff16610f57610fb9565b73ffffffffffffffffffffffffffffffffffffffff1614610fad576040517f08c379a0000000000000000000000000000000000000000000000000000000008152600401610fa4906124bc565b60405180910390fd5b610fb76000611d20565b565b60008060009054906101000a900473ffffffffffffffffffffffffffffffffffffffff16905090565b610fea611d18565b73ffffffffffffffffffffffffffffffffffffffff16611008610fb9565b73ffffffffffffffffffffffffffffffffffffffff161461105e576040517f08c379a0000000000000000000000000000000000000000000000000000000008152600401611055906124bc565b60405180910390fd5b60405180604001604052808381526020018273ffffffffffffffffffffffffffffffffffffffff16815250600260008481526020019081526020016000206000820151816000015560208201518160010160006101000a81548173ffffffffffffffffffffffffffffffffffffffff021916908373ffffffffffffffffffffffffffffffffffffffff16021790555090505060018290806001815401808255809150506001900390600052602060002001600090919091909150555050565b6001818154811061112d57600080fd5b906000526020600020016000915090505481565b80600073ffffffffffffffffffffffffffffffffffffffff166002600083815260200190815260200160002060010160009054906101000a900473ffffffffffffffffffffffffffffffffffffffff1673ffffffffffffffffffffffffffffffffffffffff1614156111e8576040517f08c379a00000000000000000000000000000000000000000000000000000000081526004016111df9061249c565b60405180910390fd5b82600360003373ffffffffffffffffffffffffffffffffffffffff1673ffffffffffffffffffffffffffffffffffffffff168152602001908152602001600020600084815260200190815260200160002054101561127b576040517f08c379a00000000000000000000000000000000000000000000000000000000081526004016112729061241c565b60405180910390fd5b6000600360003373ffffffffffffffffffffffffffffffffffffffff1673ffffffffffffffffffffffffffffffffffffffff168152602001908152602001600020600084815260200190815260200160002054905061133384600360003373ffffffffffffffffffffffffffffffffffffffff1673ffffffffffffffffffffffffffffffffffffffff168152602001908152602001600020600086815260200190815260200160002054611de490919063ffffffff16565b600360003373ffffffffffffffffffffffffffffffffffffffff1673ffffffffffffffffffffffffffffffffffffffff1681526020019081526020016000206000858152602001908152602001600020819055506002600084815260200190815260200160002060010160009054906101000a900473ffffffffffffffffffffffffffffffffffffffff1673ffffffffffffffffffffffffffffffffffffffff1663a9059cbb33866040518363ffffffff1660e01b81526004016113f892919061236d565b602060405180830381600087803b15801561141257600080fd5b505af1158015611426573d6000803e3d6000fd5b505050506040513d601f19601f8201168201806040525081019061144a9190611ee6565b50838161145791906125fc565b600360003373ffffffffffffffffffffffffffffffffffffffff1673ffffffffffffffffffffffffffffffffffffffff168152602001908152602001600020600085815260200190815260200160002054146114b6576114b561271a565b5b50505050565b60606005600084815260200190815260200160002060008360018111156114e6576114e5612778565b5b8152602001908152602001600020805480602002602001604051908101604052809291908181526020016000905b828210156115ff57838290600052602060002090600502016040518060c0016040529081600082015481526020016001820160009054906101000a900473ffffffffffffffffffffffffffffffffffffffff1673ffffffffffffffffffffffffffffffffffffffff1673ffffffffffffffffffffffffffffffffffffffff1681526020016001820160149054906101000a900460ff1660018111156115bc576115bb612778565b5b60018111156115ce576115cd612778565b5b8152602001600282015481526020016003820154815260200160048201548152505081526020019060010190611514565b50505050905092915050565b80600360003373ffffffffffffffffffffffffffffffffffffffff1673ffffffffffffffffffffffffffffffffffffffff16815260200190815260200160002060007f455448000000000000000000000000000000000000000000000000000000000081526020019081526020016000205410156116be576040517f08c379a00000000000000000000000000000000000000000000000000000000081526004016116b59061245c565b60405180910390fd5b61174181600360003373ffffffffffffffffffffffffffffffffffffffff1673ffffffffffffffffffffffffffffffffffffffff16815260200190815260200160002060007f4554480000000000000000000000000000000000000000000000000000000000815260200190815260200160002054611de490919063ffffffff16565b600360003373ffffffffffffffffffffffffffffffffffffffff1673ffffffffffffffffffffffffffffffffffffffff16815260200190815260200160002060007f45544800000000000000000000000000000000000000000000000000000000008152602001908152602001600020819055503373ffffffffffffffffffffffffffffffffffffffff16816040516117d990612306565b60006040518083038185875af1925050503d8060008114611816576040519150601f19603f3d011682016040523d82523d6000602084013e61181b565b606091505b50505050565b80600073ffffffffffffffffffffffffffffffffffffffff166002600083815260200190815260200160002060010160009054906101000a900473ffffffffffffffffffffffffffffffffffffffff1673ffffffffffffffffffffffffffffffffffffffff1614156118c8576040517f08c379a00000000000000000000000000000000000000000000000000000000081526004016118bf9061249c565b60405180910390fd5b6000600360003373ffffffffffffffffffffffffffffffffffffffff1673ffffffffffffffffffffffffffffffffffffffff16815260200190815260200160002060008481526020019081526020016000205490506002600084815260200190815260200160002060010160009054906101000a900473ffffffffffffffffffffffffffffffffffffffff1673ffffffffffffffffffffffffffffffffffffffff166323b872dd3330876040518463ffffffff1660e01b815260040161199093929190612336565b602060405180830381600087803b1580156119aa57600080fd5b505af11580156119be573d6000803e3d6000fd5b505050506040513d601f19601f820116820180604052508101906119e29190611ee6565b50611a4684600360003373ffffffffffffffffffffffffffffffffffffffff1673ffffffffffffffffffffffffffffffffffffffff168152602001908152602001600020600086815260200190815260200160002054611dfa90919063ffffffff16565b600360003373ffffffffffffffffffffffffffffffffffffffff1673ffffffffffffffffffffffffffffffffffffffff1681526020019081526020016000206000858152602001908152602001600020819055508381611aa6919061254c565b600360003373ffffffffffffffffffffffffffffffffffffffff1673ffffffffffffffffffffffffffffffffffffffff16815260200190815260200160002060008581526020019081526020016000205414611b0557611b0461271a565b5b50505050565b611b13611d18565b73ffffffffffffffffffffffffffffffffffffffff16611b31610fb9565b73ffffffffffffffffffffffffffffffffffffffff1614611b87576040517f08c379a0000000000000000000000000000000000000000000000000000000008152600401611b7e906124bc565b60405180910390fd5b600073ffffffffffffffffffffffffffffffffffffffff168173ffffffffffffffffffffffffffffffffffffffff161415611bf7576040517f08c379a0000000000000000000000000000000000000000000000000000000008152600401611bee9061243c565b60405180910390fd5b611c0081611d20565b50565b60045481565b611c8c34600360003373ffffffffffffffffffffffffffffffffffffffff1673ffffffffffffffffffffffffffffffffffffffff16815260200190815260200160002060007f4554480000000000000000000000000000000000000000000000000000000000815260200190815260200160002054611dfa90919063ffffffff16565b600360003373ffffffffffffffffffffffffffffffffffffffff1673ffffffffffffffffffffffffffffffffffffffff16815260200190815260200160002060007f4554480000000000000000000000000000000000000000000000000000000000815260200190815260200160002081905550565b60008183611d1091906125a2565b905092915050565b600033905090565b60008060009054906101000a900473ffffffffffffffffffffffffffffffffffffffff169050816000806101000a81548173ffffffffffffffffffffffffffffffffffffffff021916908373ffffffffffffffffffffffffffffffffffffffff1602179055508173ffffffffffffffffffffffffffffffffffffffff168173ffffffffffffffffffffffffffffffffffffffff167f8be0079c531659141344cd1fd0a4f28419497f9722a3daafe3b4186f6b6457e060405160405180910390a35050565b60008183611df291906125fc565b905092915050565b60008183611e08919061254c565b905092915050565b600081359050611e1f81612983565b92915050565b600081519050611e348161299a565b92915050565b600081359050611e49816129b1565b92915050565b600081359050611e5e816129c8565b92915050565b600081359050611e73816129d8565b92915050565b600060208284031215611e8f57611e8e6127d6565b5b6000611e9d84828501611e10565b91505092915050565b60008060408385031215611ebd57611ebc6127d6565b5b6000611ecb85828601611e10565b9250506020611edc85828601611e3a565b9150509250929050565b600060208284031215611efc57611efb6127d6565b5b6000611f0a84828501611e25565b91505092915050565b600060208284031215611f2957611f286127d6565b5b6000611f3784828501611e3a565b91505092915050565b60008060408385031215611f5757611f566127d6565b5b6000611f6585828601611e3a565b9250506020611f7685828601611e10565b9150509250929050565b60008060408385031215611f9757611f966127d6565b5b6000611fa585828601611e3a565b9250506020611fb685828601611e4f565b9150509250929050565b60008060008060808587031215611fda57611fd96127d6565b5b6000611fe887828801611e4f565b9450506020611ff987828801611e3a565b935050604061200a87828801611e64565b925050606061201b87828801611e64565b91505092959194509250565b60006020828403121561203d5761203c6127d6565b5b600061204b84828501611e64565b91505092915050565b6000806040838503121561206b5761206a6127d6565b5b600061207985828601611e64565b925050602061208a85828601611e3a565b9150509250929050565b60006120a0838361226d565b60c08301905092915050565b6120b581612630565b82525050565b6120c481612630565b82525050565b60006120d582612507565b6120df818561251f565b93506120ea836124f7565b8060005b8381101561211b5781516121028882612094565b975061210d83612512565b9250506001810190506120ee565b5085935050505092915050565b6121318161264e565b82525050565b6121408161264e565b82525050565b61214f81612695565b82525050565b600061216260258361253b565b915061216d826127db565b604082019050919050565b600061218560198361253b565b91506121908261282a565b602082019050919050565b60006121a860268361253b565b91506121b382612853565b604082019050919050565b60006121cb60128361253b565b91506121d6826128a2565b602082019050919050565b60006121ee60238361253b565b91506121f9826128cb565b604082019050919050565b600061221160148361253b565b915061221c8261291a565b602082019050919050565b600061223460208361253b565b915061223f82612943565b602082019050919050565b6000612257600083612530565b91506122628261296c565b600082019050919050565b60c08201600082015161228360008501826122e8565b50602082015161229660208501826120ac565b5060408201516122a96040850182612146565b5060608201516122bc6060850182612128565b5060808201516122cf60808501826122e8565b5060a08201516122e260a08501826122e8565b50505050565b6122f18161268b565b82525050565b6123008161268b565b82525050565b60006123118261224a565b9150819050919050565b600060208201905061233060008301846120bb565b92915050565b600060608201905061234b60008301866120bb565b61235860208301856120bb565b61236560408301846122f7565b949350505050565b600060408201905061238260008301856120bb565b61238f60208301846122f7565b9392505050565b600060208201905081810360008301526123b081846120ca565b905092915050565b60006020820190506123cd6000830184612137565b92915050565b60006040820190506123e86000830185612137565b6123f560208301846120bb565b9392505050565b6000602082019050818103600083015261241581612155565b9050919050565b6000602082019050818103600083015261243581612178565b9050919050565b600060208201905081810360008301526124558161219b565b9050919050565b60006020820190508181036000830152612475816121be565b9050919050565b60006020820190508181036000830152612495816121e1565b9050919050565b600060208201905081810360008301526124b581612204565b9050919050565b600060208201905081810360008301526124d581612227565b9050919050565b60006020820190506124f160008301846122f7565b92915050565b6000819050602082019050919050565b600081519050919050565b6000602082019050919050565b600082825260208201905092915050565b600081905092915050565b600082825260208201905092915050565b60006125578261268b565b91506125628361268b565b9250827fffffffffffffffffffffffffffffffffffffffffffffffffffffffffffffffff0382111561259757612596612749565b5b828201905092915050565b60006125ad8261268b565b91506125b88361268b565b9250817fffffffffffffffffffffffffffffffffffffffffffffffffffffffffffffffff04831182151516156125f1576125f0612749565b5b828202905092915050565b60006126078261268b565b91506126128361268b565b92508282101561262557612624612749565b5b828203905092915050565b600061263b8261266b565b9050919050565b60008115159050919050565b6000819050919050565b60008190506126668261296f565b919050565b600073ffffffffffffffffffffffffffffffffffffffff82169050919050565b6000819050919050565b60006126a082612658565b9050919050565b60006126b28261268b565b915060008214156126c6576126c5612749565b5b600182039050919050565b60006126dc8261268b565b91507fffffffffffffffffffffffffffffffffffffffffffffffffffffffffffffffff82141561270f5761270e612749565b5b600182019050919050565b7f4e487b7100000000000000000000000000000000000000000000000000000000600052600160045260246000fd5b7f4e487b7100000000000000000000000000000000000000000000000000000000600052601160045260246000fd5b7f4e487b7100000000000000000000000000000000000000000000000000000000600052602160045260246000fd5b7f4e487b7100000000000000000000000000000000000000000000000000000000600052603260045260246000fd5b600080fd5b7f6e6f7420656e6f75676820746f6b656e7320746f20706c6163652073656c6c2060008201527f6f72646572000000000000000000000000000000000000000000000000000000602082015250565b7f42616c616e6365206973206e6f742073756666696369656e7400000000000000600082015250565b7f4f776e61626c653a206e6577206f776e657220697320746865207a65726f206160008201527f6464726573730000000000000000000000000000000000000000000000000000602082015250565b7f496e7375666669656e742062616c616e63650000000000000000000000000000600082015250565b7f6e6f7420656e6f75676820457468657220746f20706c61636520627579206f7260008201527f6465720000000000000000000000000000000000000000000000000000000000602082015250565b7f546f6b656e20646f6573206e6f74206578697374000000000000000000000000600082015250565b7f4f776e61626c653a2063616c6c6572206973206e6f7420746865206f776e6572600082015250565b50565b600281106129805761297f612778565b5b50565b61298c81612630565b811461299757600080fd5b50565b6129a381612642565b81146129ae57600080fd5b50565b6129ba8161264e565b81146129c557600080fd5b50565b600281106129d557600080fd5b50565b6129e18161268b565b81146129ec57600080fd5b5056fea26469706673582212206e177394075582f7cd91f521db1870427d452ae78c6c36113380d3cde4a0d5a664736f6c63430008070033",
  "immutableReferences": {},
  "source": "pragma solidity ^0.8.7;\npragma experimental ABIEncoderV2;\nimport \"./Wallet.sol\";\n\ncontract Dex is Wallet {\n\n    using SafeMath for uint256;\n    enum Side {\n        BUY,\n        SELL\n    }\n    struct Order {\n        uint id;\n        address trader;\n        Side side;\n        bytes32 ticker;\n        uint amount; \n        uint price;\n    }\n    uint public nextOrderID = 0;\n\n    // maps a ticker to a mapping that maps to buy/sell order in the orderbook\n    mapping(bytes32 => mapping(uint => Order[])) orderbook;\n\n    function getOrderBook(bytes32 ticker, Side side) view public returns(Order[] memory) {\n        return orderbook[ticker][uint(side)];\n    }\n    \n    function createLimitOrder(Side _side, bytes32 _ticker, uint _amount, uint _price) public {\n\n        if (_side == Side.BUY) {\n            require(balances[msg.sender][\"ETH\"] >= _amount.mul(_price), \"not enough Ether to place buy order\");\n\n            // create new buy order\n            Order[] storage orders = orderbook[_ticker][0];\n            orders.push(\n                Order(nextOrderID, msg.sender, _side, _ticker, _amount, _price)\n            );\n            nextOrderID++;\n\n            // sort buy orderbook in descending order\n            uint i = orders.length > 0 ? orders.length - 1 : 0;\n            while (i > 0) {\n                if (orders[i].price >= orders[i - 1].price) {\n                    Order memory temp = orders[i];\n                    orders[i] = orders[i - 1];\n                    orders[i - 1] = temp;\n                }\n                i--;\n            }\n        }\n\n        if (_side == Side.SELL) {\n            require(balances[msg.sender][_ticker] >= _amount.mul(_price), \"not enough tokens to place sell order\");\n\n            // create new sell order\n            Order[] storage orders = orderbook[_ticker][1];\n            orders.push(\n                Order(nextOrderID, msg.sender, _side, _ticker, _amount, _price)\n            );\n            nextOrderID++;\n\n            // sort sell orderbook in ascending order\n            uint i = orders.length > 0 ? orders.length - 1 : 0;\n            while (i > 0) {\n                if (orders[i].price <= orders[i - 1].price) {\n                    Order memory temp = orders[i];\n                    orders[i] = orders[i - 1];\n                    orders[i - 1] = temp;\n                }\n                i--;\n            }\n        }\n\n    }\n\n}\n",
  "sourcePath": "/Users/eerinahaque/Downloads/Projects/Crypto/DEX/contracts/Dex.sol",
  "compiler": {
    "name": "solc",
    "version": "0.8.7+commit.e28d00a7.Emscripten.clang"
  },
  "schemaVersion": "3.4.1",
  "updatedAt": "2021-08-26T03:58:23.948Z",
  "devdoc": {
    "kind": "dev",
    "methods": {
      "owner()": {
        "details": "Returns the address of the current owner."
      },
      "renounceOwnership()": {
        "details": "Leaves the contract without owner. It will not be possible to call `onlyOwner` functions anymore. Can only be called by the current owner. NOTE: Renouncing ownership will leave the contract without an owner, thereby removing any functionality that is only available to the owner."
      },
      "transferOwnership(address)": {
        "details": "Transfers ownership of the contract to a new account (`newOwner`). Can only be called by the current owner."
      }
    },
    "version": 1
  },
  "userdoc": {
    "kind": "user",
    "methods": {},
    "version": 1
  }
}