{
  "contractName": "Wallet",
  "abi": [
    {
      "anonymous": false,
      "inputs": [
        {
          "indexed": true,
          "internalType": "address",
          "name": "previousOwner",
          "type": "address"
        },
        {
          "indexed": true,
          "internalType": "address",
          "name": "newOwner",
          "type": "address"
        }
      ],
      "name": "OwnershipTransferred",
      "type": "event"
    },
    {
      "inputs": [
        {
          "internalType": "address",
          "name": "",
          "type": "address"
        },
        {
          "internalType": "bytes32",
          "name": "",
          "type": "bytes32"
        }
      ],
      "name": "balances",
      "outputs": [
        {
          "internalType": "uint256",
          "name": "",
          "type": "uint256"
        }
      ],
      "stateMutability": "view",
      "type": "function"
    },
    {
      "inputs": [],
      "name": "owner",
      "outputs": [
        {
          "internalType": "address",
          "name": "",
          "type": "address"
        }
      ],
      "stateMutability": "view",
      "type": "function"
    },
    {
      "inputs": [],
      "name": "renounceOwnership",
      "outputs": [],
      "stateMutability": "nonpayable",
      "type": "function"
    },
    {
      "inputs": [
        {
          "internalType": "uint256",
          "name": "",
          "type": "uint256"
        }
      ],
      "name": "tokenList",
      "outputs": [
        {
          "internalType": "bytes32",
          "name": "",
          "type": "bytes32"
        }
      ],
      "stateMutability": "view",
      "type": "function"
    },
    {
      "inputs": [
        {
          "internalType": "bytes32",
          "name": "",
          "type": "bytes32"
        }
      ],
      "name": "tokenMapping",
      "outputs": [
        {
          "internalType": "bytes32",
          "name": "ticker",
          "type": "bytes32"
        },
        {
          "internalType": "address",
          "name": "tokenAddress",
          "type": "address"
        }
      ],
      "stateMutability": "view",
      "type": "function"
    },
    {
      "inputs": [
        {
          "internalType": "address",
          "name": "newOwner",
          "type": "address"
        }
      ],
      "name": "transferOwnership",
      "outputs": [],
      "stateMutability": "nonpayable",
      "type": "function"
    },
    {
      "inputs": [
        {
          "internalType": "bytes32",
          "name": "_ticker",
          "type": "bytes32"
        },
        {
          "internalType": "address",
          "name": "_tokenAddress",
          "type": "address"
        }
      ],
      "name": "addToken",
      "outputs": [],
      "stateMutability": "nonpayable",
      "type": "function"
    },
    {
      "inputs": [
        {
          "internalType": "uint256",
          "name": "_amount",
          "type": "uint256"
        },
        {
          "internalType": "bytes32",
          "name": "_ticker",
          "type": "bytes32"
        }
      ],
      "name": "deposit",
      "outputs": [],
      "stateMutability": "nonpayable",
      "type": "function"
    },
    {
      "inputs": [
        {
          "internalType": "uint256",
          "name": "_amount",
          "type": "uint256"
        },
        {
          "internalType": "bytes32",
          "name": "_ticker",
          "type": "bytes32"
        }
      ],
      "name": "withdraw",
      "outputs": [],
      "stateMutability": "nonpayable",
      "type": "function"
    },
    {
      "inputs": [],
      "name": "depositETH",
      "outputs": [],
      "stateMutability": "payable",
      "type": "function"
    },
    {
      "inputs": [
        {
          "internalType": "uint256",
          "name": "amount",
          "type": "uint256"
        }
      ],
      "name": "withdrawEth",
      "outputs": [],
      "stateMutability": "nonpayable",
      "type": "function"
    }
  ],
  "bytecode": "0x608060405234801561001057600080fd5b5061002d61002261003260201b60201c565b61003a60201b60201c565b6100fe565b600033905090565b60008060009054906101000a900473ffffffffffffffffffffffffffffffffffffffff169050816000806101000a81548173ffffffffffffffffffffffffffffffffffffffff021916908373ffffffffffffffffffffffffffffffffffffffff1602179055508173ffffffffffffffffffffffffffffffffffffffff168173ffffffffffffffffffffffffffffffffffffffff167f8be0079c531659141344cd1fd0a4f28419497f9722a3daafe3b4186f6b6457e060405160405180910390a35050565b6117888061010d6000396000f3fe60806040526004361061009c5760003560e01c80639ead7222116100645780639ead722214610187578063a8d2021a146101c4578063c311d049146101ed578063c9630cb014610216578063f2fde38b1461023f578063f6326fb3146102685761009c565b80631f14df69146100a1578063667cb4ba146100de578063715018a61461011c5780638da5cb5b146101335780639776aacf1461015e575b600080fd5b3480156100ad57600080fd5b506100c860048036038101906100c391906110d0565b610272565b6040516100d5919061148a565b60405180910390f35b3480156100ea57600080fd5b506101056004803603810190610100919061113d565b610297565b6040516101139291906113c1565b60405180910390f35b34801561012857600080fd5b506101316102db565b005b34801561013f57600080fd5b50610148610363565b604051610155919061132b565b60405180910390f35b34801561016a57600080fd5b506101856004803603810190610180919061116a565b61038c565b005b34801561019357600080fd5b506101ae60048036038101906101a991906111aa565b6104c7565b6040516101bb91906113a6565b60405180910390f35b3480156101d057600080fd5b506101eb60048036038101906101e691906111d7565b6104eb565b005b3480156101f957600080fd5b50610214600480360381019061020f91906111aa565b610866565b005b34801561022257600080fd5b5061023d600480360381019061023891906111d7565b610a7c565b005b34801561024b57600080fd5b50610266600480360381019061026191906110a3565b610d66565b005b610270610e5e565b005b6003602052816000526040600020602052806000526040600020600091509150505481565b60026020528060005260406000206000915090508060000154908060010160009054906101000a900473ffffffffffffffffffffffffffffffffffffffff16905082565b6102e3610f57565b73ffffffffffffffffffffffffffffffffffffffff16610301610363565b73ffffffffffffffffffffffffffffffffffffffff1614610357576040517f08c379a000000000000000000000000000000000000000000000000000000000815260040161034e9061146a565b60405180910390fd5b6103616000610f5f565b565b60008060009054906101000a900473ffffffffffffffffffffffffffffffffffffffff16905090565b610394610f57565b73ffffffffffffffffffffffffffffffffffffffff166103b2610363565b73ffffffffffffffffffffffffffffffffffffffff1614610408576040517f08c379a00000000000000000000000000000000000000000000000000000000081526004016103ff9061146a565b60405180910390fd5b60405180604001604052808381526020018273ffffffffffffffffffffffffffffffffffffffff16815250600260008481526020019081526020016000206000820151816000015560208201518160010160006101000a81548173ffffffffffffffffffffffffffffffffffffffff021916908373ffffffffffffffffffffffffffffffffffffffff16021790555090505060018290806001815401808255809150506001900390600052602060002001600090919091909150555050565b600181815481106104d757600080fd5b906000526020600020016000915090505481565b80600073ffffffffffffffffffffffffffffffffffffffff166002600083815260200190815260200160002060010160009054906101000a900473ffffffffffffffffffffffffffffffffffffffff1673ffffffffffffffffffffffffffffffffffffffff161415610592576040517f08c379a00000000000000000000000000000000000000000000000000000000081526004016105899061144a565b60405180910390fd5b82600360003373ffffffffffffffffffffffffffffffffffffffff1673ffffffffffffffffffffffffffffffffffffffff1681526020019081526020016000206000848152602001908152602001600020541015610625576040517f08c379a000000000000000000000000000000000000000000000000000000000815260040161061c906113ea565b60405180910390fd5b6000600360003373ffffffffffffffffffffffffffffffffffffffff1673ffffffffffffffffffffffffffffffffffffffff16815260200190815260200160002060008481526020019081526020016000205490506106dd84600360003373ffffffffffffffffffffffffffffffffffffffff1673ffffffffffffffffffffffffffffffffffffffff16815260200190815260200160002060008681526020019081526020016000205461102390919063ffffffff16565b600360003373ffffffffffffffffffffffffffffffffffffffff1673ffffffffffffffffffffffffffffffffffffffff1681526020019081526020016000206000858152602001908152602001600020819055506002600084815260200190815260200160002060010160009054906101000a900473ffffffffffffffffffffffffffffffffffffffff1673ffffffffffffffffffffffffffffffffffffffff1663a9059cbb33866040518363ffffffff1660e01b81526004016107a292919061137d565b602060405180830381600087803b1580156107bc57600080fd5b505af11580156107d0573d6000803e3d6000fd5b505050506040513d601f19601f820116820180604052508101906107f49190611110565b5083816108019190611517565b600360003373ffffffffffffffffffffffffffffffffffffffff1673ffffffffffffffffffffffffffffffffffffffff168152602001908152602001600020600085815260200190815260200160002054146108605761085f61159d565b5b50505050565b80600360003373ffffffffffffffffffffffffffffffffffffffff1673ffffffffffffffffffffffffffffffffffffffff16815260200190815260200160002060007f45544800000000000000000000000000000000000000000000000000000000008152602001908152602001600020541015610919576040517f08c379a00000000000000000000000000000000000000000000000000000000081526004016109109061142a565b60405180910390fd5b61099c81600360003373ffffffffffffffffffffffffffffffffffffffff1673ffffffffffffffffffffffffffffffffffffffff16815260200190815260200160002060007f455448000000000000000000000000000000000000000000000000000000000081526020019081526020016000205461102390919063ffffffff16565b600360003373ffffffffffffffffffffffffffffffffffffffff1673ffffffffffffffffffffffffffffffffffffffff16815260200190815260200160002060007f45544800000000000000000000000000000000000000000000000000000000008152602001908152602001600020819055503373ffffffffffffffffffffffffffffffffffffffff1681604051610a3490611316565b60006040518083038185875af1925050503d8060008114610a71576040519150601f19603f3d011682016040523d82523d6000602084013e610a76565b606091505b50505050565b80600073ffffffffffffffffffffffffffffffffffffffff166002600083815260200190815260200160002060010160009054906101000a900473ffffffffffffffffffffffffffffffffffffffff1673ffffffffffffffffffffffffffffffffffffffff161415610b23576040517f08c379a0000000000000000000000000000000000000000000000000000000008152600401610b1a9061144a565b60405180910390fd5b6000600360003373ffffffffffffffffffffffffffffffffffffffff1673ffffffffffffffffffffffffffffffffffffffff16815260200190815260200160002060008481526020019081526020016000205490506002600084815260200190815260200160002060010160009054906101000a900473ffffffffffffffffffffffffffffffffffffffff1673ffffffffffffffffffffffffffffffffffffffff166323b872dd3330876040518463ffffffff1660e01b8152600401610beb93929190611346565b602060405180830381600087803b158015610c0557600080fd5b505af1158015610c19573d6000803e3d6000fd5b505050506040513d601f19601f82011682018060405250810190610c3d9190611110565b50610ca184600360003373ffffffffffffffffffffffffffffffffffffffff1673ffffffffffffffffffffffffffffffffffffffff16815260200190815260200160002060008681526020019081526020016000205461103990919063ffffffff16565b600360003373ffffffffffffffffffffffffffffffffffffffff1673ffffffffffffffffffffffffffffffffffffffff1681526020019081526020016000206000858152602001908152602001600020819055508381610d0191906114c1565b600360003373ffffffffffffffffffffffffffffffffffffffff1673ffffffffffffffffffffffffffffffffffffffff16815260200190815260200160002060008581526020019081526020016000205414610d6057610d5f61159d565b5b50505050565b610d6e610f57565b73ffffffffffffffffffffffffffffffffffffffff16610d8c610363565b73ffffffffffffffffffffffffffffffffffffffff1614610de2576040517f08c379a0000000000000000000000000000000000000000000000000000000008152600401610dd99061146a565b60405180910390fd5b600073ffffffffffffffffffffffffffffffffffffffff168173ffffffffffffffffffffffffffffffffffffffff161415610e52576040517f08c379a0000000000000000000000000000000000000000000000000000000008152600401610e499061140a565b60405180910390fd5b610e5b81610f5f565b50565b610ee134600360003373ffffffffffffffffffffffffffffffffffffffff1673ffffffffffffffffffffffffffffffffffffffff16815260200190815260200160002060007f455448000000000000000000000000000000000000000000000000000000000081526020019081526020016000205461103990919063ffffffff16565b600360003373ffffffffffffffffffffffffffffffffffffffff1673ffffffffffffffffffffffffffffffffffffffff16815260200190815260200160002060007f4554480000000000000000000000000000000000000000000000000000000000815260200190815260200160002081905550565b600033905090565b60008060009054906101000a900473ffffffffffffffffffffffffffffffffffffffff169050816000806101000a81548173ffffffffffffffffffffffffffffffffffffffff021916908373ffffffffffffffffffffffffffffffffffffffff1602179055508173ffffffffffffffffffffffffffffffffffffffff168173ffffffffffffffffffffffffffffffffffffffff167f8be0079c531659141344cd1fd0a4f28419497f9722a3daafe3b4186f6b6457e060405160405180910390a35050565b600081836110319190611517565b905092915050565b6000818361104791906114c1565b905092915050565b60008135905061105e816116f6565b92915050565b6000815190506110738161170d565b92915050565b60008135905061108881611724565b92915050565b60008135905061109d8161173b565b92915050565b6000602082840312156110b9576110b86115fb565b5b60006110c78482850161104f565b91505092915050565b600080604083850312156110e7576110e66115fb565b5b60006110f58582860161104f565b925050602061110685828601611079565b9150509250929050565b600060208284031215611126576111256115fb565b5b600061113484828501611064565b91505092915050565b600060208284031215611153576111526115fb565b5b600061116184828501611079565b91505092915050565b60008060408385031215611181576111806115fb565b5b600061118f85828601611079565b92505060206111a08582860161104f565b9150509250929050565b6000602082840312156111c0576111bf6115fb565b5b60006111ce8482850161108e565b91505092915050565b600080604083850312156111ee576111ed6115fb565b5b60006111fc8582860161108e565b925050602061120d85828601611079565b9150509250929050565b6112208161154b565b82525050565b61122f81611569565b82525050565b60006112426019836114b0565b915061124d82611600565b602082019050919050565b60006112656026836114b0565b915061127082611629565b604082019050919050565b60006112886012836114b0565b915061129382611678565b602082019050919050565b60006112ab6014836114b0565b91506112b6826116a1565b602082019050919050565b60006112ce6020836114b0565b91506112d9826116ca565b602082019050919050565b60006112f16000836114a5565b91506112fc826116f3565b600082019050919050565b61131081611593565b82525050565b6000611321826112e4565b9150819050919050565b60006020820190506113406000830184611217565b92915050565b600060608201905061135b6000830186611217565b6113686020830185611217565b6113756040830184611307565b949350505050565b60006040820190506113926000830185611217565b61139f6020830184611307565b9392505050565b60006020820190506113bb6000830184611226565b92915050565b60006040820190506113d66000830185611226565b6113e36020830184611217565b9392505050565b6000602082019050818103600083015261140381611235565b9050919050565b6000602082019050818103600083015261142381611258565b9050919050565b600060208201905081810360008301526114438161127b565b9050919050565b600060208201905081810360008301526114638161129e565b9050919050565b60006020820190508181036000830152611483816112c1565b9050919050565b600060208201905061149f6000830184611307565b92915050565b600081905092915050565b600082825260208201905092915050565b60006114cc82611593565b91506114d783611593565b9250827fffffffffffffffffffffffffffffffffffffffffffffffffffffffffffffffff0382111561150c5761150b6115cc565b5b828201905092915050565b600061152282611593565b915061152d83611593565b9250828210156115405761153f6115cc565b5b828203905092915050565b600061155682611573565b9050919050565b60008115159050919050565b6000819050919050565b600073ffffffffffffffffffffffffffffffffffffffff82169050919050565b6000819050919050565b7f4e487b7100000000000000000000000000000000000000000000000000000000600052600160045260246000fd5b7f4e487b7100000000000000000000000000000000000000000000000000000000600052601160045260246000fd5b600080fd5b7f42616c616e6365206973206e6f742073756666696369656e7400000000000000600082015250565b7f4f776e61626c653a206e6577206f776e657220697320746865207a65726f206160008201527f6464726573730000000000000000000000000000000000000000000000000000602082015250565b7f496e7375666669656e742062616c616e63650000000000000000000000000000600082015250565b7f546f6b656e20646f6573206e6f74206578697374000000000000000000000000600082015250565b7f4f776e61626c653a2063616c6c6572206973206e6f7420746865206f776e6572600082015250565b50565b6116ff8161154b565b811461170a57600080fd5b50565b6117168161155d565b811461172157600080fd5b50565b61172d81611569565b811461173857600080fd5b50565b61174481611593565b811461174f57600080fd5b5056fea26469706673582212206f806106ce044fbed8664d665c2dd6d8c6d62dff6bdc25da647b26f97ee35b9664736f6c63430008070033",
  "immutableReferences": {},
  "source": "pragma solidity 0.8.7;\n\nimport \"../node_modules/@openzeppelin/contracts/token/ERC20/IERC20.sol\";\nimport \"../node_modules/@openzeppelin/contracts/utils/math/SafeMath.sol\";\nimport \"../node_modules/@openzeppelin/contracts/access/Ownable.sol\";\n\ncontract Wallet is Ownable {\n\n  using SafeMath for uint256;\n\n  struct Token {\n    bytes32 ticker;\n    address tokenAddress;\n  }\n\n  bytes32[] public tokenList;\n  mapping(bytes32 => Token) public tokenMapping;\n\n  mapping(address => mapping(bytes32 => uint256)) public balances; // bytes32 is the token symbol\n\n// modifiers \n  modifier tokenExists(bytes32 _ticker) {\n    require(tokenMapping[_ticker].tokenAddress != address(0), \"Token does not exist\");\n    _;\n  }\n\n// functions \n  function addToken(bytes32 _ticker, address _tokenAddress) onlyOwner external {\n    tokenMapping[_ticker] = Token(_ticker, _tokenAddress);\n    tokenList.push(_ticker);\n  }\n\n  function deposit(uint _amount, bytes32 _ticker) tokenExists(_ticker) external {\n\n\n    uint256 ogBalance = balances[msg.sender][_ticker];\n    IERC20(tokenMapping[_ticker].tokenAddress).transferFrom(msg.sender, address(this), _amount);\n    balances[msg.sender][_ticker] = balances[msg.sender][_ticker].add(_amount);\n\n    assert(balances[msg.sender][_ticker] == ogBalance + _amount);\n  }\n\n  function withdraw(uint256 _amount, bytes32 _ticker) tokenExists(_ticker) external {\n    require(balances[msg.sender][_ticker] >= _amount, \"Balance is not sufficient\");\n\n    uint256 ogBalance = balances[msg.sender][_ticker];\n    balances[msg.sender][_ticker] = balances[msg.sender][_ticker].sub(_amount);\n    IERC20(tokenMapping[_ticker].tokenAddress).transfer(msg.sender, _amount);\n\n    assert(balances[msg.sender][_ticker] == ogBalance - _amount);\n  }\n\n  function depositETH() payable external {\n     balances[msg.sender][bytes32(\"ETH\")] = balances[msg.sender][bytes32(\"ETH\")].add(msg.value);\n  }\n    \n  function withdrawEth(uint amount) external {\n      require(balances[msg.sender][bytes32(\"ETH\")] >= amount,'Insuffient balance'); \n      balances[msg.sender][bytes32(\"ETH\")] = balances[msg.sender][bytes32(\"ETH\")].sub(amount);\n      msg.sender.call{value:amount}(\"\");\n  }\n}\n",
  "sourcePath": "/Users/eerinahaque/Downloads/Projects/Crypto/DEX/contracts/Wallet.sol",
  "compiler": {
    "name": "solc",
    "version": "0.8.7+commit.e28d00a7.Emscripten.clang"
  },
  "schemaVersion": "3.4.1",
  "updatedAt": "2021-08-26T03:58:23.996Z",
  "devdoc": {
    "kind": "dev",
    "methods": {
      "owner()": {
        "details": "Returns the address of the current owner."
      },
      "renounceOwnership()": {
        "details": "Leaves the contract without owner. It will not be possible to call `onlyOwner` functions anymore. Can only be called by the current owner. NOTE: Renouncing ownership will leave the contract without an owner, thereby removing any functionality that is only available to the owner."
      },
      "transferOwnership(address)": {
        "details": "Transfers ownership of the contract to a new account (`newOwner`). Can only be called by the current owner."
      }
    },
    "version": 1
  },
  "userdoc": {
    "kind": "user",
    "methods": {},
    "version": 1
  }
}