{
  "contractName": "Wallet",
  "abi": [
    {
      "anonymous": false,
      "inputs": [
        {
          "indexed": true,
          "internalType": "address",
          "name": "previousOwner",
          "type": "address"
        },
        {
          "indexed": true,
          "internalType": "address",
          "name": "newOwner",
          "type": "address"
        }
      ],
      "name": "OwnershipTransferred",
      "type": "event"
    },
    {
      "inputs": [
        {
          "internalType": "address",
          "name": "",
          "type": "address"
        },
        {
          "internalType": "bytes32",
          "name": "",
          "type": "bytes32"
        }
      ],
      "name": "balances",
      "outputs": [
        {
          "internalType": "uint256",
          "name": "",
          "type": "uint256"
        }
      ],
      "stateMutability": "view",
      "type": "function",
      "constant": true
    },
    {
      "inputs": [],
      "name": "owner",
      "outputs": [
        {
          "internalType": "address",
          "name": "",
          "type": "address"
        }
      ],
      "stateMutability": "view",
      "type": "function",
      "constant": true
    },
    {
      "inputs": [],
      "name": "renounceOwnership",
      "outputs": [],
      "stateMutability": "nonpayable",
      "type": "function"
    },
    {
      "inputs": [
        {
          "internalType": "uint256",
          "name": "",
          "type": "uint256"
        }
      ],
      "name": "tokenList",
      "outputs": [
        {
          "internalType": "bytes32",
          "name": "",
          "type": "bytes32"
        }
      ],
      "stateMutability": "view",
      "type": "function",
      "constant": true
    },
    {
      "inputs": [
        {
          "internalType": "bytes32",
          "name": "",
          "type": "bytes32"
        }
      ],
      "name": "tokenMapping",
      "outputs": [
        {
          "internalType": "bytes32",
          "name": "ticker",
          "type": "bytes32"
        },
        {
          "internalType": "address",
          "name": "tokenAddress",
          "type": "address"
        }
      ],
      "stateMutability": "view",
      "type": "function",
      "constant": true
    },
    {
      "inputs": [
        {
          "internalType": "address",
          "name": "newOwner",
          "type": "address"
        }
      ],
      "name": "transferOwnership",
      "outputs": [],
      "stateMutability": "nonpayable",
      "type": "function"
    },
    {
      "inputs": [
        {
          "internalType": "bytes32",
          "name": "_ticker",
          "type": "bytes32"
        },
        {
          "internalType": "address",
          "name": "_tokenAddress",
          "type": "address"
        }
      ],
      "name": "addToken",
      "outputs": [],
      "stateMutability": "nonpayable",
      "type": "function"
    },
    {
      "inputs": [
        {
          "internalType": "uint256",
          "name": "_amount",
          "type": "uint256"
        },
        {
          "internalType": "bytes32",
          "name": "_ticker",
          "type": "bytes32"
        }
      ],
      "name": "deposit",
      "outputs": [],
      "stateMutability": "nonpayable",
      "type": "function"
    },
    {
      "inputs": [
        {
          "internalType": "uint256",
          "name": "_amount",
          "type": "uint256"
        },
        {
          "internalType": "bytes32",
          "name": "_ticker",
          "type": "bytes32"
        }
      ],
      "name": "withdraw",
      "outputs": [],
      "stateMutability": "nonpayable",
      "type": "function"
    }
  ],
  "bytecode": "0x608060405234801561001057600080fd5b5061002d61002261003260201b60201c565b61003a60201b60201c565b6100fe565b600033905090565b60008060009054906101000a900473ffffffffffffffffffffffffffffffffffffffff169050816000806101000a81548173ffffffffffffffffffffffffffffffffffffffff021916908373ffffffffffffffffffffffffffffffffffffffff1602179055508173ffffffffffffffffffffffffffffffffffffffff168173ffffffffffffffffffffffffffffffffffffffff167f8be0079c531659141344cd1fd0a4f28419497f9722a3daafe3b4186f6b6457e060405160405180910390a35050565b6112e28061010d6000396000f3fe608060405234801561001057600080fd5b50600436106100935760003560e01c80639776aacf116100665780639776aacf146101215780639ead72221461013d578063a8d2021a1461016d578063c9630cb014610189578063f2fde38b146101a557610093565b80631f14df6914610098578063667cb4ba146100c8578063715018a6146100f95780638da5cb5b14610103575b600080fd5b6100b260048036038101906100ad9190610d58565b6101c1565b6040516100bf9190611119565b60405180910390f35b6100e260048036038101906100dd9190610dbd565b6101e6565b6040516100f0929190611070565b60405180910390f35b61010161022a565b005b61010b6102b2565b6040516101189190610fda565b60405180910390f35b61013b60048036038101906101369190610de6565b6102db565b005b61015760048036038101906101529190610e22565b610416565b6040516101649190611055565b60405180910390f35b61018760048036038101906101829190610e4b565b61043a565b005b6101a3600480360381019061019e9190610e4b565b6107db565b005b6101bf60048036038101906101ba9190610d2f565b610aeb565b005b6003602052816000526040600020602052806000526040600020600091509150505481565b60026020528060005260406000206000915090508060000154908060010160009054906101000a900473ffffffffffffffffffffffffffffffffffffffff16905082565b610232610be3565b73ffffffffffffffffffffffffffffffffffffffff166102506102b2565b73ffffffffffffffffffffffffffffffffffffffff16146102a6576040517f08c379a000000000000000000000000000000000000000000000000000000000815260040161029d906110f9565b60405180910390fd5b6102b06000610beb565b565b60008060009054906101000a900473ffffffffffffffffffffffffffffffffffffffff16905090565b6102e3610be3565b73ffffffffffffffffffffffffffffffffffffffff166103016102b2565b73ffffffffffffffffffffffffffffffffffffffff1614610357576040517f08c379a000000000000000000000000000000000000000000000000000000000815260040161034e906110f9565b60405180910390fd5b60405180604001604052808381526020018273ffffffffffffffffffffffffffffffffffffffff16815250600260008481526020019081526020016000206000820151816000015560208201518160010160006101000a81548173ffffffffffffffffffffffffffffffffffffffff021916908373ffffffffffffffffffffffffffffffffffffffff16021790555090505060018290806001815401808255809150506001900390600052602060002001600090919091909150555050565b6001818154811061042657600080fd5b906000526020600020016000915090505481565b80600073ffffffffffffffffffffffffffffffffffffffff166002600083815260200190815260200160002060010160009054906101000a900473ffffffffffffffffffffffffffffffffffffffff1673ffffffffffffffffffffffffffffffffffffffff1614156104e1576040517f08c379a00000000000000000000000000000000000000000000000000000000081526004016104d8906110d9565b60405180910390fd5b82600360003373ffffffffffffffffffffffffffffffffffffffff1673ffffffffffffffffffffffffffffffffffffffff1681526020019081526020016000206000848152602001908152602001600020541015610574576040517f08c379a000000000000000000000000000000000000000000000000000000000815260040161056b90611099565b60405180910390fd5b6000600360003373ffffffffffffffffffffffffffffffffffffffff1673ffffffffffffffffffffffffffffffffffffffff168152602001908152602001600020600084815260200190815260200160002054905061062c84600360003373ffffffffffffffffffffffffffffffffffffffff1673ffffffffffffffffffffffffffffffffffffffff168152602001908152602001600020600086815260200190815260200160002054610caf90919063ffffffff16565b600360003373ffffffffffffffffffffffffffffffffffffffff1673ffffffffffffffffffffffffffffffffffffffff1681526020019081526020016000206000858152602001908152602001600020819055506002600084815260200190815260200160002060010160009054906101000a900473ffffffffffffffffffffffffffffffffffffffff1673ffffffffffffffffffffffffffffffffffffffff1663a9059cbb33866040518363ffffffff1660e01b81526004016106f192919061102c565b602060405180830381600087803b15801561070b57600080fd5b505af115801561071f573d6000803e3d6000fd5b505050506040513d601f19601f820116820180604052508101906107439190610d94565b508381610750919061119b565b600360003373ffffffffffffffffffffffffffffffffffffffff1673ffffffffffffffffffffffffffffffffffffffff168152602001908152602001600020600085815260200190815260200160002054146107d5577f4e487b7100000000000000000000000000000000000000000000000000000000600052600160045260246000fd5b50505050565b80600073ffffffffffffffffffffffffffffffffffffffff166002600083815260200190815260200160002060010160009054906101000a900473ffffffffffffffffffffffffffffffffffffffff1673ffffffffffffffffffffffffffffffffffffffff161415610882576040517f08c379a0000000000000000000000000000000000000000000000000000000008152600401610879906110d9565b60405180910390fd5b6000600360003373ffffffffffffffffffffffffffffffffffffffff1673ffffffffffffffffffffffffffffffffffffffff16815260200190815260200160002060008481526020019081526020016000205490506002600084815260200190815260200160002060010160009054906101000a900473ffffffffffffffffffffffffffffffffffffffff1673ffffffffffffffffffffffffffffffffffffffff166323b872dd3330876040518463ffffffff1660e01b815260040161094a93929190610ff5565b602060405180830381600087803b15801561096457600080fd5b505af1158015610978573d6000803e3d6000fd5b505050506040513d601f19601f8201168201806040525081019061099c9190610d94565b50610a0084600360003373ffffffffffffffffffffffffffffffffffffffff1673ffffffffffffffffffffffffffffffffffffffff168152602001908152602001600020600086815260200190815260200160002054610cc590919063ffffffff16565b600360003373ffffffffffffffffffffffffffffffffffffffff1673ffffffffffffffffffffffffffffffffffffffff1681526020019081526020016000206000858152602001908152602001600020819055508381610a609190611145565b600360003373ffffffffffffffffffffffffffffffffffffffff1673ffffffffffffffffffffffffffffffffffffffff16815260200190815260200160002060008581526020019081526020016000205414610ae5577f4e487b7100000000000000000000000000000000000000000000000000000000600052600160045260246000fd5b50505050565b610af3610be3565b73ffffffffffffffffffffffffffffffffffffffff16610b116102b2565b73ffffffffffffffffffffffffffffffffffffffff1614610b67576040517f08c379a0000000000000000000000000000000000000000000000000000000008152600401610b5e906110f9565b60405180910390fd5b600073ffffffffffffffffffffffffffffffffffffffff168173ffffffffffffffffffffffffffffffffffffffff161415610bd7576040517f08c379a0000000000000000000000000000000000000000000000000000000008152600401610bce906110b9565b60405180910390fd5b610be081610beb565b50565b600033905090565b60008060009054906101000a900473ffffffffffffffffffffffffffffffffffffffff169050816000806101000a81548173ffffffffffffffffffffffffffffffffffffffff021916908373ffffffffffffffffffffffffffffffffffffffff1602179055508173ffffffffffffffffffffffffffffffffffffffff168173ffffffffffffffffffffffffffffffffffffffff167f8be0079c531659141344cd1fd0a4f28419497f9722a3daafe3b4186f6b6457e060405160405180910390a35050565b60008183610cbd919061119b565b905092915050565b60008183610cd39190611145565b905092915050565b600081359050610cea81611250565b92915050565b600081519050610cff81611267565b92915050565b600081359050610d148161127e565b92915050565b600081359050610d2981611295565b92915050565b600060208284031215610d4157600080fd5b6000610d4f84828501610cdb565b91505092915050565b60008060408385031215610d6b57600080fd5b6000610d7985828601610cdb565b9250506020610d8a85828601610d05565b9150509250929050565b600060208284031215610da657600080fd5b6000610db484828501610cf0565b91505092915050565b600060208284031215610dcf57600080fd5b6000610ddd84828501610d05565b91505092915050565b60008060408385031215610df957600080fd5b6000610e0785828601610d05565b9250506020610e1885828601610cdb565b9150509250929050565b600060208284031215610e3457600080fd5b6000610e4284828501610d1a565b91505092915050565b60008060408385031215610e5e57600080fd5b6000610e6c85828601610d1a565b9250506020610e7d85828601610d05565b9150509250929050565b610e90816111cf565b82525050565b610e9f816111ed565b82525050565b6000610eb2601983611134565b91507f42616c616e6365206973206e6f742073756666696369656e74000000000000006000830152602082019050919050565b6000610ef2602683611134565b91507f4f776e61626c653a206e6577206f776e657220697320746865207a65726f206160008301527f64647265737300000000000000000000000000000000000000000000000000006020830152604082019050919050565b6000610f58601483611134565b91507f546f6b656e20646f6573206e6f742065786973740000000000000000000000006000830152602082019050919050565b6000610f98602083611134565b91507f4f776e61626c653a2063616c6c6572206973206e6f7420746865206f776e65726000830152602082019050919050565b610fd481611217565b82525050565b6000602082019050610fef6000830184610e87565b92915050565b600060608201905061100a6000830186610e87565b6110176020830185610e87565b6110246040830184610fcb565b949350505050565b60006040820190506110416000830185610e87565b61104e6020830184610fcb565b9392505050565b600060208201905061106a6000830184610e96565b92915050565b60006040820190506110856000830185610e96565b6110926020830184610e87565b9392505050565b600060208201905081810360008301526110b281610ea5565b9050919050565b600060208201905081810360008301526110d281610ee5565b9050919050565b600060208201905081810360008301526110f281610f4b565b9050919050565b6000602082019050818103600083015261111281610f8b565b9050919050565b600060208201905061112e6000830184610fcb565b92915050565b600082825260208201905092915050565b600061115082611217565b915061115b83611217565b9250827fffffffffffffffffffffffffffffffffffffffffffffffffffffffffffffffff038211156111905761118f611221565b5b828201905092915050565b60006111a682611217565b91506111b183611217565b9250828210156111c4576111c3611221565b5b828203905092915050565b60006111da826111f7565b9050919050565b60008115159050919050565b6000819050919050565b600073ffffffffffffffffffffffffffffffffffffffff82169050919050565b6000819050919050565b7f4e487b7100000000000000000000000000000000000000000000000000000000600052601160045260246000fd5b611259816111cf565b811461126457600080fd5b50565b611270816111e1565b811461127b57600080fd5b50565b611287816111ed565b811461129257600080fd5b50565b61129e81611217565b81146112a957600080fd5b5056fea264697066735822122033936a852e09266ecfbb9a75f07e2f96b3bf715e3306ac41670488c88bf6068564736f6c63430008000033",
  "immutableReferences": {},
  "source": "pragma solidity 0.8.0;\n\nimport \"../node_modules/@openzeppelin/contracts/token/ERC20/IERC20.sol\";\nimport \"../node_modules/@openzeppelin/contracts/utils/math/SafeMath.sol\";\nimport \"../node_modules/@openzeppelin/contracts/access/Ownable.sol\";\n\ncontract Wallet is Ownable {\n\n  using SafeMath for uint256;\n\n  struct Token {\n  //  uint256 arrIndex;\n    bytes32 ticker;\n    address tokenAddress;\n  }\n\n  bytes32[] public tokenList;\n  mapping(bytes32 => Token) public tokenMapping;\n\n  mapping(address => mapping(bytes32 => uint256)) public balances; // bytes32 is the token symbol\n\n  modifier tokenExists(bytes32 _ticker) {\n    require(tokenMapping[_ticker].tokenAddress != address(0), \"Token does not exist\");\n    _;\n  }\n\n  function addToken(bytes32 _ticker, address _tokenAddress) onlyOwner external {\n    tokenMapping[_ticker] = Token(_ticker, _tokenAddress);\n    tokenList.push(_ticker);\n  }\n\n  function deposit(uint _amount, bytes32 _ticker) tokenExists(_ticker) external {\n\n\n    uint256 ogBalance = balances[msg.sender][_ticker];\n    IERC20(tokenMapping[_ticker].tokenAddress).transferFrom(msg.sender, address(this), _amount);\n    balances[msg.sender][_ticker] = balances[msg.sender][_ticker].add(_amount);\n\n    assert(balances[msg.sender][_ticker] == ogBalance + _amount);\n  }\n\n  function withdraw(uint256 _amount, bytes32 _ticker) tokenExists(_ticker) external {\n    require(balances[msg.sender][_ticker] >= _amount, \"Balance is not sufficient\");\n\n    uint256 ogBalance = balances[msg.sender][_ticker];\n    balances[msg.sender][_ticker] = balances[msg.sender][_ticker].sub(_amount);\n    IERC20(tokenMapping[_ticker].tokenAddress).transfer(msg.sender, _amount);\n\n    assert(balances[msg.sender][_ticker] == ogBalance - _amount);\n  }\n}\n",
  "sourcePath": "/Users/eerinahaque/Downloads/CS/Solidity/DEX/contracts/Wallet.sol",
  "compiler": {
    "name": "solc",
    "version": "0.8.0+commit.c7dfd78e.Emscripten.clang"
  },
  "schemaVersion": "3.4.1",
  "updatedAt": "2021-07-24T22:22:23.214Z",
  "networkType": "ethereum",
  "devdoc": {
    "kind": "dev",
    "methods": {
      "owner()": {
        "details": "Returns the address of the current owner."
      },
      "renounceOwnership()": {
        "details": "Leaves the contract without owner. It will not be possible to call `onlyOwner` functions anymore. Can only be called by the current owner. NOTE: Renouncing ownership will leave the contract without an owner, thereby removing any functionality that is only available to the owner."
      },
      "transferOwnership(address)": {
        "details": "Transfers ownership of the contract to a new account (`newOwner`). Can only be called by the current owner."
      }
    },
    "version": 1
  },
  "userdoc": {
    "kind": "user",
    "methods": {},
    "version": 1
  }
}